:020000041000EA
:1000000000B5324B212058609868022188439860DF
:10001000D860186158612E4B002199600221596106
:100020000121F02299502B49196001219960352056
:1000300000F044F80222904214D00621196600F024
:1000400034F8196E01211966002018661A6600F04E
:100050002CF8196E196E196E052000F02FF8012189
:100060000842F9D1002199601B49196000215960AB
:100070001A491B48016001219960EB211966A021F2
:10008000196600F012F800219960164914480160C1
:100090000121996001BC002800D000471248134993
:1000A000086003C880F30888084703B5996A0420EC
:1000B0000142FBD001200142F8D103BD02B5186610
:1000C0001866FFF7F2FF186E186E02BD00000240BE
:1000D000000000180000070000035F00212200005C
:1000E000F4000018222000A00001001008ED00E03C
:1000F00000000000000000000000000074B24E7A12
:1001000000200420F7010010C3010010C5010010F9
:10011000C1010010C1010010C1010010C101001097
:10012000C1010010C1010010C1010010C701001081
:10013000C1010010C1010010C9010010CB01001065
:10014000CD010010CD010010CD010010CD01001037
:10015000CD010010CD010010CD010010CD01001027
:10016000CD010010CD010010CD010010CD01001017
:10017000CD010010CD010010CD010010CD01001007
:10018000CD010010CD010010CD010010CD010010F7
:10019000CD010010CD010010CD010010CD010010E7
:1001A000CD010010CD010010CD010010CD010010D7
:1001B000CD010010CD010010CD010010CD010010C7
:1001C00000BE00BE00BE00BE00BE00BE00F04BF888
:1001D000103800BEF2EB8871CC0C0110EC0C011051
:1001E0003402001090A31AE700202149086006C8D5
:1001F00081F3088810471F48006800282FD10DA4FC
:100200000ECC002902D000F012F8F9E71A491B4A77
:10021000002000E001C19142FCD1194988471949E9
:1002200088471949884700BEFDE701C901C29A42C3
:10023000FBD37047EC0C0110C0000020D00E002052
:10024000FC1A01100000042000000420FC1A011018
:1002500000100420001004200000000070470B482C
:1002600003F0DAFF0047EFF30580C0B270470000EB
:1002700008ED00E0000000D0D00E0020A41C0020FB
:10028000D52A00100D030010912A001057560000C7
:1002900006005250ABB3605310FB001006005250E2
:1002A000861C030220FB0010060052505422A29D1F
:1002B00028FB001005005250DE65F468FC1A01109E
:1002C000F8B5C04610B5064C2378002B07D1054B76
:1002D000002B02D0044800E000BF0123237010BDB2
:1002E000D80F002000000000E0E40010044B10B51F
:1002F000002B03D00349044800E000BF10BDC046F6
:1003000000000000DC0F0020E0E40010F0B5DE4645
:1003100057464E464546E0B58BB000F0C3FC192069
:1003200000F064FED0252D068026B6046E626E6154
:10033000062206217B4800F0EBFD00F04BFC00227A
:10034000794B7A4805F0FAF9794C0121200008F040
:10035000B1F80700AE61012200210F2000F02CFE51
:10036000744801F07BFF002201210F2000F024FEE1
:1003700006210F2000F008FE6F4D082300932B1C70
:1003800000223900200000F0D9FC3900200000F0E4
:10039000B0FCFA20800001F061FF00260395B94609
:1003A000370006E0644A4946614800F059FD039071
:1003B0000027D02424068025AD0465615F4805F040
:1003C000BDF906A800F070F9A56105AA5C4906A868
:1003D00008F02EFF040000F0FDF8804600F02CF934
:1003E0000600200000F086F90028DBD1042FD9D8C0
:1003F000404600F0F5F8002800D088E0514805F0AC
:100400006BF9D6E74A4E08230093039B4246390016
:10041000300000F093FC21004B4805F08FF93900C3
:10042000300000F066FC1AE0200000F0B5F800286B
:1004300053D0200000F0CEF804003D4B9A460096C1
:10044000039B02003900504600F078FC2200310086
:100450003E4805F073F93900504600F04AFC5B460F
:10046000013301D05D453FD005AA3549002008F091
:10047000DFFE0400013501239C46E144FA204000E0
:1004800001F0ECFE002C48D0002DBBD0200008F07D
:100490006BFE860023783F2BC6D1200000F05EF86B
:1004A0000028C1D0224C3300039A3900200000F00C
:1004B00073FC3900200000F01CFC1D4B5A68390009
:1004C000083101238B401342F7D18B00184A9A5808
:1004D00031001F4805F032F9C1E73B004F4699460D
:1004E0001C4805F0F9F864E7FA20400001F0B6FE78
:1004F000194805F0F1F80E4C1023039A390020003A
:1005000000F07CFC3900200000F0F3FBACE7002594
:100510004B46B946B3461F00B4E73B004F469946E9
:1005200047E7C04600C0C62D00007940E0E4001057
:1005300000002050881300000000C84300E50010B0
:1005400014E500106CE5001018E500103CE5001003
:1005500028E5001050E5001064E5001010B5040017
:1005600008F002FE022808D0042810D1002305E07C
:10057000084805F0B1F8002008E00023834204D2C7
:10058000E25C3F2AF4D10133F8E7012010BD0020DE
:10059000FCE7C04680E5001010B5040008F0E4FD5B
:1005A000022808D0042810D1002305E0084805F0EF
:1005B00093F8002008E00023834204D2E25C3F2A43
:1005C000F4D00133F8E7012010BD0020FCE7C0465D
:1005D00080E5001010B51022002108F0DFFE10BDEC
:1005E00018280AD9E82821D8482819D34838A0283B
:1005F00018D880000E4B1B589F46082803D20020B5
:1006000070470120FCE718280ED801238340094ACF
:1006100013405A1E9341D8B2002BF1D10020EFE7CE
:100620000020EDE70020EBE70020E9E70020E7E706
:1006300090E500100001010151280AD9E8282BD8C3
:10064000682819D36838792821D88000144B1B58A2
:100650009F46082804D2012040420CE000200AE016
:100660000838492805D880000E4B1B589F460020AB
:1006700001E001204042704701204042FBE7012099
:10068000F9E70120F7E70220F5E70220F3E7012070
:100690004042F0E70120EEE701204042EBE7C04690
:1006A00014E80010FCE9001030B583B005006B467B
:1006B000D91D0F4808F002FD002408E0285504F079
:1006C000B3FF6B46D91D0A4808F0F8FC01340E2C24
:1006D00005DC6B46D879FF2801D00D28EED12C1906
:1006E000002323700A2004F09FFF03B030BDC046F2
:1006F00024EB001010B5034908F0F2FC43425841C6
:10070000C0B210BD28EB0010F0B5D6464F464646A5
:10071000C0B590B004000E0015001F0018AB04CB4C
:1007200092461B7899461AAB1B78984610220021F6
:1007300008A804F047FE80235B020893F8235B02BD
:1007400009938023DB020A93C0231B030A93102220
:1007500008A904A804F03CFE2A000932059B039373
:100760003E4B03990B40E9010B43120313430593DE
:10077000079A0392D200D2088021C9050A43079242
:10078000374A13400B430593102204A90CA804F028
:100790001FFE0F9B039333491940BB0219430F916E
:1007A000314B19407B0119438023DB0419430F911E
:1007B0002E4B9C424AD00721380000F0E5FB012374
:1007C00000933A003100200007F0CCFE504604F0C0
:1007D000F7FC87B2002F3BD0380004F0C9FC011CA5
:1007E000504604F09CFC8721C90504F0B8FC04F0D5
:1007F000E7FCC0B200023F0407430C971C4B0E9A63
:1008000013404A46002A25D0802212031343424651
:10081000002A21D08022920213431B9A5206F8210B
:1008200089050A4013430E93124A1340A022D202B4
:1008300013430E930CAB2A003100200007F0CAFED0
:1008400010B0E0BCBA46B146A846F0BD0621B3E7F9
:100850000020CFE70022D9E70022DDE77F00FEFF7E
:10086000FFFFFF9FFF83FFFF1FFCFFE300002050FF
:10087000FFFFF5C1FFFF0AFEF0B5DE4657464E46C4
:100880004546E0B58FB00700884616001D0018AB3E
:1008900004CB91461B789B461AAB1B789A461022D4
:1008A000002106A804F08EFD80235B020693F82346
:1008B0005B0207938023DB020893C0231B0308938A
:1008C000102206A902A804F083FDF21D039B0193E8
:1008D0003B4B01990B40F1010B431203134303936C
:1008E000059A0192D200D2088021C9050A430592D7
:1008F000344A13400B430393102202A90AA804F0C0
:1009000067FD0D9B0193304C1C40AB021C430D94C2
:100910002E4B1C406B011C438023DB041C430D94B5
:100920002B4B1C40EB031C430D942A4B9F423ED0A3
:100930000721280000F028FB484604F041FC84B25F
:10094000002C36D0200004F013FC011C484604F0B3
:10095000E6FB8721C90504F002FC04F031FCC0B2BB
:100960000002240404430A941B4B0C9A13405A4679
:10097000002A20D08022D20213435246002A1CD0E3
:100980008022520213431B9A1205F82149040A409F
:1009900013430C930AAB32004146380007F01AFEAD
:1009A0000FB0F0BCBB46B246A946A046F0BD06213A
:1009B000BFE70020D4E70022DEE70022E2E7C046DE
:1009C0007F00FEFFFFFFFF9FFF83FFFF1FFCFFE392
:1009D000FF7FF0FF00002050FFFF0AFEF0B5C64683
:1009E00000B58EB00700884615001E1C102200219D
:1009F00006A804F0E7FC80235B020693F8235B0261
:100A000007938023DB020893C0231B030893102263
:100A100006A902A804F0DCFC2B1D039A0192224CCB
:100A20001440EA0114431B031C430394059B0193E8
:100A3000DB00DB088022D205134305931B4B1C40CF
:100A400014430394102202A90AA804F0C1FC301C2C
:100A500004F0B6FB84B2002C23D0200004F088FB05
:100A6000011C301C04F05BFB8721C90504F077FBF7
:100A700004F0A6FBC0B20002240404430A940C9BB9
:100A800001930B4A1A40A023DB0213430C930AABD9
:100A90002A004146380007F09DFD0EB080BCB846E4
:100AA000F0BD0020E7E7C0467F00FEFFFFFFFF9F8D
:100AB000FFFF0AFEF0B5C64600B590B006008846B6
:100AC00017001D001022002108A804F07BFC8023E1
:100AD0005B020893F8235B0209938023DB020A93ED
:100AE000C0231B030A93102208A904A804F070FC79
:100AF0003A000A32059B0393304B03990B40F901EE
:100B00000B43120313430593079A0392D200D208B2
:100B10008021C9050A430792294A13400B430593D4
:100B2000102204A90CA804F053FC0F9B0393254C3E
:100B30001C406B0123438024E4041C430F94224B8C
:100B40001C40AB021C430F94204B1C40EB031C4386
:100B50000F941F4B9E422CD00721280000F014FA5E
:100B6000012300932A004146300007F0FBFC169851
:100B700004F026FB84B2002C1DD0200004F0F8FA0B
:100B8000011C169804F0CBFA8721C90504F0E7FA96
:100B900004F016FBC0B20002240404430C940CAB16
:100BA0003A004146300007F015FD10B080BCB84651
:100BB000F0BD0621D1E70020EDE7C0467F00FEFF33
:100BC000FFFFFF9F1FFCFFE3FF83FFFFFF7FF0FF9F
:100BD00000002050F8B5DE4657464E464546E0B583
:100BE000012002F013F98346022002F00FF9824639
:100BF000032002F00BF98146092002F007F9804634
:100C00000A2002F003F907000B2002F0FFF80600AB
:100C10000C2002F0FBF805000D2002F0F7F80400AC
:100C20005946124804F08AFD5146114804F086FDE9
:100C30004946104804F082FD41460F4804F07EFD0D
:100C400039000E4804F07AFD31000D4804F076FDBD
:100C500029000C4804F072FD21000B4804F06EFDE1
:100C6000F0BCBB46B246A946A046F8BD30EB00102A
:100C700044EB001058EB00106CEB001080EB001000
:100C800094EB0010A8EB0010BCEB001010B5041C96
:100C9000052002F0B5F804F06BFA211C04F049FAC3
:100CA00010BD000010B504F055FD04F0A9FE0028A9
:100CB00000D110BD034801F0D1FA034804F00CFD47
:100CC000F7E7C04688130000D0EB001030B503AC46
:100CD0002478002C02D12034E31A9A4044680D0095
:100CE00010350123AB402342F8D1043189000A506A
:100CF00030BD10B542680C0008340123A3401342F4
:100D0000F8D110BD70B504000D0016000368012273
:100D10008A409343036007F007FC3100200007F08E
:100D2000E7FB69004919C900D031641880235B01D1
:100D30001C4380231B062360236070BDF0B5C646AC
:100D400000B584B004000D0016001F1C114AFFF707
:100D5000D9FF8046381CFFF799FF0A9B03930027B1
:100D60000297019700900F23424629002000FFF7C9
:100D7000CBFC00970A9B320029002000FFF7A6FF5A
:100D800022680123AB409A431343236004B080BC24
:100D9000B846F0BD8CEC0010F0B5C64600B584B086
:100DA00005000E0090461C00134AFFF7ABFF07003A
:100DB0004046FFF76BFF03940023029301930090DA
:100DC0000F333A0031002800FFF756FD611E6A68B4
:100DD000340010340123A3401342F8D1331D9B008B
:100DE00059512A680123B3409A4313432B6004B03E
:100DF00080BCB846F0BDC04674EC0010F0B5C646E5
:100E000000B506000F00151C9846022B03D90323DA
:100E10005B429C46E044114A39003000FFF772FF04
:100E20000400281CFFF732FF031C220039003000A9
:100E3000FFF7D4FD74683D0010350122AA4022421C
:100E4000F8D13B1D9B0042469A5132680123BB40BA
:100E50009A431343336080BCB846F0BD60EC001089
:100E6000F0B583B005000E00171C244AFFF74AFFB7
:100E70000400381CFFF70AFF00900F232200310006
:100E80002800FFF717FE2A680123B3409A43134353
:100E90002B60F4000434EB68E3401B07F9D001F049
:100EA00079FA06000F1E1DDBEB68E3400E221A42A2
:100EB000FAD001F06FFA02000B1E19DB921BBB4146
:100EC0001000190004F086F9F021890504F047F9B3
:100ED000011CFE20800504F02CF9094904F03FF9BB
:100EE00003B0F0BD074B084A3F21084801F0D4FD8C
:100EF000044B054A3F21054801F0CEFDA8EC001047
:100F000000247449F0EB001048EC00100CEC0010C9
:100F1000F0B583B004000D00160000F0CBF80028F7
:100F200001D003B0F0BD154F00973B000122012115
:100F3000053001F063FE00962B00220001211048CD
:100F400001F084FF31006943200003F0B9F9040087
:100F50000C4B009300220221042001F04FFE00946C
:100F6000230000220121052001F048FE00973B00EC
:100F700002220021062001F041FED2E7006CDC02D3
:100F800000800240001BB70010B58300084A944659
:100F900063441C6840226240C024144080225201F5
:100FA00013431C60C000034B9C466044416010BD6D
:100FB00004C001400040014080000B4B9C4660444F
:100FC00000290DD00823002A0CD004221343026804
:100FD00053400C221340802252011043036070479B
:100FE0000023F0E70022F1E704C0014010B501231F
:100FF0008340D0221206936293610521FFF7C4FF5C
:1010000010BD0000EFF3108072B6034B1B68002B7D
:10101000FBD0BFF35F8F70472C0100D0BFF35F8F11
:10102000024B00221A6080F3108870472C0100D018
:10103000F8B506000C001500FFF7E4FFE308F71809
:10104000F15C07222240012393400B4205D1DBB221
:101050000B433B70FFF7E2FFF8BD2100280001F0D1
:10106000B5FDF0B583B00600019114001F00FFF735
:10107000C9FF00E00134BC420CD8E308F518F35C6A
:101080000721214001228A401A42F3D1D2B21A43E9
:101090002A7001E001246442FFF7C0FF002C02DB4C
:1010A000200003B0F0BD019B002BF9D0089801F09F
:1010B0008DFD0000034B1B6802201840431E984121
:1010C000C0B2704700C00640002307E0054A9A18E6
:1010D0009200BFF35F8F0021116001331F2BF5D900
:1010E0007047C04640000034054A1078431CDBB20C
:1010F0001370172B02D9130010221A707047C046C4
:101100002004002000B583B00100044B00931F238E
:1011100018220348FFF7A5FF03B000BDC8EC00107C
:10112000A0150020074B9B68103080001950BFF3BA
:101130005F8FBFF35F8F044B0021196082F310882B
:101140007047C04600ED00E0240100D010B5091A38
:10115000081F0A4B9C466144094A914208D8C307BC
:1011600006D440104005400D064B184380B210BD18
:10117000054B064A9921064801F08EFCFC07000049
:10118000FE0F000000E0FFFFE4EC001030EF001065
:1011900014ED001010B5091A04394C08090B08D1D8
:1011A0004905490D064A11430180064B23434380FC
:1011B00010BD054B054AA121054801F06DFCC04654
:1011C00000F0FFFF00F8FFFF48ED001004EF0010F3
:1011D00014ED001001238340034A10681840431E99
:1011E0009841C0B27047C04600E100E0002904D039
:1011F000034B1860034B18607047034B1860FBE704
:1012000080E200E000E100E080E100E010B50123B1
:1012100083401800FFF7EAFF10BD00000123834060
:10122000014A13607047C04600E200E0024B9B6831
:1012300010308000C058704700ED00E010B5FFF797
:10124000F5FF002805D0054BC01A2F2803D8012030
:1012500010BD0020FCE70020FAE7C046240400206F
:1012600070B504000D00EFF3108672B60C4B1B68CE
:10127000002BFBD0BFF35F8F2000FFF7D7FF094B98
:10128000984201D0A84205D1320029002000FFF782
:1012900049FF70BD044B054A7C21054801F0FCFB69
:1012A000240100D0CD01001058ED001064EF0010B3
:1012B00014ED0010F0B5DE4657464E464546E0B503
:1012C00089B0814601911500EFF3108A72B6744B14
:1012D0001B68002BFBD0BFF35F8F724B0027DF57DB
:1012E000002F40DB7C00E419A4006F48241806227C
:1012F000A2566C4B1A706D4B9A684B4610339B008C
:10130000D35898461E001B1A2F2B38D9684B984586
:101310002FD105AE674B33807B009B46D8198000E8
:10132000614B9846404402306349FFF70FFF7080DD
:10133000624BB380FF23B371F571019B07935F4448
:10134000BF0047440ECE0EC701231C43A0465246A1
:1013500041464846FFF7E6FE09B0F0BCBB46B24640
:10136000A946A046F0BD564B564ACD21564801F03D
:1013700093FB564B534AD421534801F08DFBC04395
:1013800040440C2102F09CFF002912D101239E430E
:10139000B34633000026DA79AA4211D906215956FC
:1013A00000290CDB4A00521892001E003E4B9B188D
:1013B000F1E7474B434AE021434801F06DFB1E0033
:1013C000002E3BD005AB434A1A80813A5A8006234F
:1013D000F3560293002B18DABD20000205AB9B46A2
:1013E0009880029A9A71DD71019A0792301D21004E
:1013F000FFF7ACFEB080B7717B00DB199B002A4F72
:10140000FF185B4607CB07C7A1E77800C01980002B
:10141000254BC0180430321DB388D90A1C2907D1C6
:101420005B055915023149005118FFF78FFED5E7CA
:10143000294B2A4AA721244801F02EFB05AE1D4B5B
:1014400033807B000293D8198000174A904602002F
:1014500042440392901C1849FFF778FE7080039A6B
:10146000101D5946FFF772FEB0801D4B5A4641468B
:10147000521A524153431B0DB371F571019A0792F1
:10148000029B9C466744BF0047440ECE0EC7114BDB
:101490005A461380813B538001231C43A04656E7E4
:1014A000240100D09F1C00202404002000ED00E057
:1014B000CD01001000A1FFFF5404002000BDFFFF7C
:1014C00090ED00104CEF001014ED0010B8ED00107E
:1014D000E0ED00100148000054EE00103CEF001059
:1014E000AAAA0000F0B5CE46474680B583B00600F4
:1014F0000D00EFF3108872B6564B1B68002BFBD023
:10150000BFF35F8F544B9A6834001034A300D75850
:10151000524B9F4207D0AF4200D199E00197504B08
:10152000FB1A2F2B09D9424639003000FFF7FAFD8C
:1015300003B0C0BCB946B046F0BD3000FFF74AFE6C
:10154000814600213000FFF761FEBFF35F8FFEF799
:101550008AFE002801D0844211D10123019C9C43C2
:101560000022A368AB4212D00622A256002A0DDB4D
:1015700053009B189B002200394CE418F1E72C2102
:10158000384B394AFF31394801F086FA2200AB4224
:1015900057D106256557002D39DB6B005B199A0082
:1015A0002F4B9B189A68A260DA79E27106229A564C
:1015B000A2719B795BB2002B10DABD200002A080E3
:1015C0006B005B199B00264AD318294A1178997140
:1015D000157049463000FFF719FEA4E7201D6B0087
:1015E0005B199B001E4A9B181A1D9B88D90A1C294F
:1015F00007D15B055B15023359005118FFF7A6FDB3
:10160000DDE71C4B1C4AA721184801F045FA0028C9
:1016100012D1002A0ED0FF239371184B9380144AE5
:101620001378A371164B0E49641A644163431B0D72
:101630001370CEE7094FF2E7201D1249FFF7AAFD0C
:10164000C7E76021104B084AFF31084801F024FA2F
:10165000024F68E7240100D000ED00E0CD0100104A
:10166000240400206CEE00101CEF001014ED00109C
:101670009F1C002054EE00103CEF001000BDFFFF47
:10168000AAAA00005E04002090EE001070B50400CD
:10169000012606432D4BF31A2F2B28D8FEF7E3FD26
:1016A00000282BD0EFF3108C72B6294B1B68002B4F
:1016B000FBD0BFF35F8F274D22002449521A5241BD
:1016C00055432D0D6DB2244B9B6880001B58B342CF
:1016D0001BD00022032A32D853009B189B001B49C1
:1016E000CB189B795BB2AB421FD00132F2E7C2212B
:1016F0001A4B1B4A49001B4801F0CEF988211A4BAE
:10170000174AFF31174801F0C7F9134B9B68174A76
:101710001A50174B1A78A2711D70BFF35F8F0C4BD4
:1017200000221A608CF3108870BD080053009918CD
:1017300089004118FF268E710E4A8A80E9E7CC2184
:101740000D4B074A4900074801F0A6F92404002080
:10175000240100D0AAAA000000ED00E098EE0010DD
:10176000E8EE001014ED0010C0EE0010CD010010E6
:101770009F1C002000BDFFFF78E500100022044BF5
:1017800002E0044902C30132072AFAD97047C04671
:1017900000E400E08080808000B583B00100D023A9
:1017A0001B061B680648C018064B00930523002241
:1017B000FFF757FC002801DB1F23181A03B000BDF8
:1017C000981C0020CCEE0010024B9C46614489001E
:1017D000016070474000003470B505000C0008003F
:1017E00000F0CCFD200000F0D5FE0849200000F0FC
:1017F00015FEFFF779FC064B9C466044800068604C
:101800002C75A400034BE55070BDC0461D1B001095
:10181000400000344C1A00200A4B1A68EFF3108184
:1018200072B61368002BFCD0BFF35F8F054B1B68AB
:10183000BFF35F8F00221A6081F3108840BF002041
:1018400000217047681C002010B5002922D00368D1
:101850001B7B99421ED8174B9C4661440901836843
:101860009C4661440C684968002A19D003681B7BB8
:101870009A4215D883680F488446624412019A1828
:1018800010685368020001208B4201D80ED000205E
:10189000C0B210BD084B094A3B21094801F0FCF8D1
:1018A000054B064A3B21064801F0F6F8A242EFD864
:1018B000EDE7C046FFFFFF0FC4EF001018F2001065
:1018C00094EF001010B500291ED0037B99421BD85D
:1018D0004B005B18033B0468A4466344002919D0FD
:1018E000002A1DD0914221D0002A25D0047BA2429B
:1018F00022D80468500080180338201881701978A5
:1019000000291FD11A7010BD104B114A68211148CF
:1019100001F0C2F8104B114A6F310E4801F0BCF8CB
:101920000F4B0E4A70210B4801F0B6F80D4B0B4AD5
:101930007121084801F0B0F8044B054A68210548B8
:1019400001F0AAF841701A70DDE7C046F8EF001008
:1019500084F2001014F0001054F0001060F2001037
:1019600060F000106CF0001070B506000D0014005F
:10197000002914D0002A14D0806873689847002882
:1019800006D0220029003000FFF79CFF280007E066
:101990002A0021003000FFF795FF200000E0100032
:1019A00070BD0800FCE70000F0B583B005000092B0
:1019B00001930AAB1C780BAB1F78002C26D0036870
:1019C0005A7B944207D10123002B19D1002C3BD123
:1019D000200003B0F0BD002C0CD01A7B944209D833
:1019E0001A6863001B19033BD3189B78002BEBD0BC
:1019F0000123E9E73E4B3F4A68213F4801F04CF89C
:101A00003E4B3F4A65213F4801F046F803689C7B06
:101A1000002CDBD012D01A7B94420FD8620012192E
:101A2000033A19688C46624451789973002900D1B1
:101A3000D9730023937053701370C7E72C4B2D4A52
:101A400068212D4801F028F8002C3AD02B681B7B28
:101A50009C4236D82C4BE3181B01AA689446634479
:101A6000009A1A60019A5A60089A9A60099ADA6094
:101A70002E68002C2BD030D0337B9C422DD86300B5
:101A80001B19033B32689446634400229A705A70D3
:101A90001A70717B22003000FFF766FF707384427A
:101AA00000D095E7287D009A019B00F0FFFC061E00
:101AB00001D0002F17D00C9B002B00D188E71E709F
:101AC00086E7124B124A3B210E4800F0E5FF114B0E
:101AD000114AA521084800F0DFFF054B054A68219F
:101AE000054800F0D9FF2868210000F007FFE2E771
:101AF000F8EF001084F2001014F0001084F00010D1
:101B000090F2001094EF0010FFFFFF0FC4EF0010E1
:101B100018F2001090EF001074F20010F0B5DE46DD
:101B200057464E464546E0B58BB0099000230893D2
:101B30008200B24BD658370032E0B14BB14A3F2158
:101B4000B14800F0A9FFB14BB14A3B21B14800F0C8
:101B5000A3FFB14BB14A8C21AE4800F09DFFB04BC2
:101B6000AE4A9021AB4800F097FFA84BAD4A402108
:101B7000A84800F091FF2A686B68099800F096FC6D
:101B800000239A4698467B68BFF35F8F00221A6055
:101B900086F310884346002B51D1002800D126E15E
:101BA00000F0F8FB02000B1EC7DB002000210690AE
:101BB00007917868EFF3108672B601680029FCD0AF
:101BC000BFF35F8F396888464C7B002C32D0BAD087
:101BD000097B8C42B7D8944965182D01B9688C46A9
:101BE000654428686968801A99410029C3DC01D1DD
:101BF0000028C0D10021404600F076FEA042A8D1C6
:101C00002A686B6806920793AB689846EB689A4619
:101C10004346002BA3D0002CA7D03B681B7B9C42E3
:101C2000A3D8631EFA68D35C08931B02184338617B
:101C30000020A8E700239A4698460020A3E7089BC7
:101C40001B022343994651461800C04705000E0069
:101C50007A68EFF3108B72B6136859424B41D9B2D0
:101C6000002BF9D1BFF35F8F002E26DB002E52DD53
:101C70003B69002B53D04B4572D100F08BFB020027
:101C80000B1E73DB0100180052197341984202D8F1
:101C900004D1914202D901225242D317002B6BDBAF
:101CA0000021049101310391029451460191414672
:101CB00000913800FFF778FE49E03B69002BD5D052
:101CC0004B451CD1069A079B10001900521BB341CB
:101CD000994202D804D1904202D901225242D3172C
:101CE000002B12DB00210491013103910294514633
:101CF0000191414600913800FFF756FE27E04B4B1B
:101D0000464A9F21434800F0C7FE3D4B3D4A3F21D4
:101D10003D4800F0C1FE002E01D1002DA8D13A6847
:101D2000002C45D0537B9C422CD1012100293FD16E
:101D3000D37B002B42D1D473002C52D03B681B7B49
:101D40009C424ED8FA68013C135D013313550023C1
:101D50003B617A68BFF35F8F13608BF310881FE7D6
:101D6000324B2E4AA2212B4800F096FE244B254AE6
:101D70003F21254800F090FE214B224A3F21224876
:101D800000F08AFE002C0DD0137B9C420AD8630021
:101D90001B19033B1068844663449B78002BC5D015
:101DA0000121C3E7224B234A6821234800F074FE37
:101DB000224B234AF621204800F06EFE002B0AD069
:101DC000117B8B4207D85900CB18033B11688C4616
:101DD00063445C70AFE7164B164A6821164800F062
:101DE0005BFE0A4B0F4A40210A4800F055FE0BB03B
:101DF000F0BCBB46B246A946A046F0BD4C1A002036
:101E0000F0EB0010E4F100100CEC0010C4EF001037
:101E100018F2001094EF0010ACF00010FCF100106C
:101E2000C4F000103CF20010FFFFFF0FD0F00010D4
:101E3000F8EF001084F2001014F000100CF1001004
:101E400050F2001010B50A4B5B68002B04D00A2139
:101E50000848FFF7B9FC10BD054C2300064A1021C5
:101E6000206800F061FC03212000FFF7B5FCEEE7DD
:101E70006C040020681C00204918001010B5064BA7
:101E80005B68002B01D0044810BD044B044A5C2160
:101E9000044800F001FEC0466C04002030F1001040
:101EA00024F2001094EF0010F0B5DE4657464E467F
:101EB0004546E0B58BB0804616001F00149B9A463D
:101EC000159B994616AB1B789B461F2302AA944686
:101ED000634400221A7032E0002809D0424612689A
:101EE000127B904204D8421E4146C9688A5C48E091
:101EF000434B444A4021444800F0CEFD0798002B54
:101F000075D05B46002B72D04946D04704000D00C7
:101F100003000B4300D171E0002946DB00F03AFAE0
:101F200006000F1E55DB36196F41B94202D804D1A5
:101F3000B04202D901267642F717002F4FDB434605
:101F40005A68EFF3108472B6136859424B41D9B204
:101F50000791002BF8D1BFF35F8F1F3302AA94467D
:101F6000634404930023039302934B460193534627
:101F7000009332003B004046FFF716FD031EABD135
:101F8000020041464968BFF35F8F00250D6084F36E
:101F90001088002B29D01F2302A98C4663441B788C
:101FA000002BABD112021043A9E732003B00361BD5
:101FB000AF41BB4202D804D1B24202D901267642D7
:101FC000F717002FBBDA114B114A3F21114800F0DF
:101FD00063FD0E4B0E4A3F210E4800F05DFD0B4B9A
:101FE0000B4A3F210B4800F057FD012040420BB047
:101FF000F0BCBB46B246A946A046F0BD0798F6E73E
:10200000C4EF00103CF2001094EF0010F0EB001051
:10201000E4F100100CEC0010F8B504004268EFF396
:10202000108572B6136858424341D8B2002BF9D1DB
:10203000BFF35F8FCBB22268567BB3421BD1012026
:10204000002848D0206988422BD0090AC9B2002B49
:102050002ED02068007B83422AD8581EE668305C68
:1020600088422BD000206368BFF35F8F00221A6084
:1020700085F31088F8BD002B0DD0167BB3420AD82B
:102080005E00F618033E1768BC466644B678002E1C
:10209000D6D00120D4E7134B134A6821134800F02F
:1020A000FBFC8521124B134A4900134800F0F4FC55
:1020B000124B134A4021104800F0EEFC19001000AA
:1020C00000F01CFC0028CED112210E4B094AFF3132
:1020D000094800F0E1FC23698B42C4D1002323614D
:1020E000C1E7C046F8EF001084F2001014F00010B1
:1020F00054F10010CCF1001094EF0010C4EF001068
:102100003CF2001078F10010F0B587B006000F0027
:10211000FEF7A9F800281FD106246442E517A41988
:102120007D41BD4202D803D1B44201D9002400252B
:10213000002D14DB0494059500F02CF902000B1E11
:1021400013DBA41A9D41002D17DC14D03000390098
:1021500000F02CF907B0F0BD234800F037FD234B09
:10216000234A3F21234800F097FC204B204A3F217F
:10217000204800F091FC002CE8D0FFF77FFE002300
:10218000029301931C4B0093049A059BFFF78CFE6E
:10219000002818DADAE7002300E00023002BD5D16D
:1021A000164B1A68EFF3108172B61368002BFCD03F
:1021B000BFF35F8F114B1B68BFF35F8F00221A6064
:1021C00081F3108820BF0499059A0D4B5B6A9A42EF
:1021D000E3D80B48806A884203D29A42DBD00123BD
:1021E000DCE70123DAE7C0467CF10010F0EB0010D9
:1021F000E4F100100CEC001019180010681C00200D
:1022000000400540F8B504000D0000F0C3F80200DE
:102210000B1E10DB20002900801859418B4202D888
:1022200004D1824202D901204042C117002908DBB3
:10223000FFF76AFFF8BD064B064A3F21064800F04B
:102240002BFC034B034A3F21034800F025FCC0460A
:10225000F0EB0010E4F100100CEC001010B5FA22C5
:1022600092000023002102F03DFFFFF7CBFF10BDDD
:1022700070B584B006000C00FFF700FE0023029347
:102280000193194B009332002300FFF70DFE051E4A
:1022900011DD20BFFFF7F2FD2900FFF7BDFE134B54
:1022A0005B6A9C421BD8114A926AB2421AD29C4283
:1022B00013D0012014E00D4B5B6A9C4209D80B4AF5
:1022C000926AB24207D29C4201D0012008E000206D
:1022D00006E0002004E0012002E0002000E00020F1
:1022E00004B070BD0120FBE7191800100040054044
:1022F00070B5EFF305833F2018401038EFF3108CD2
:1023000072B6194B1B68002BFBD0BFF35F8F012304
:1023100019008140154A5163154A12781400C440CF
:10232000234214D0114B5C6A8300124D5B599C42CE
:1023300006D38300104C1B598A430D490A7007E0ED
:102340000A4A031D9B0099589950002300E000237E
:10235000BFF35F8F044A002111608CF31088002BBB
:1023600000D0984770BDC046280100D0004005400D
:10237000A31C0020741C00209014002010B5010044
:10238000024A0348FEF754FE10BDC046B0F20010EA
:102390009D1C0020044B5B6A034A906A1900536A33
:1023A0009942F9D17047C04600400540084B5B6A2E
:1023B00001E0074B5B6A8B42FBD301E0044B5B6A95
:1023C0008B4203D1024B9B6A8342F7D37047C046CE
:1023D0000040054070B504000D00FFF7DBFF020070
:1023E0000B0020002900801859418B4202D804D1EB
:1023F000824202D901204042C117002902DBFFF7C7
:10240000D5FF70BD024B034A3F21034800F044FB57
:10241000F0EB00104CF300100CEC001070B5040051
:102420000D00EFF3108672B61B4B1B68002BFBD020
:10243000BFF35F8F002D1CD02000FEF7F7FE174B77
:1024400083420BD019002000FEF70AFF0121200073
:10245000FEF7DCFE0123A340114A1360A400114BD8
:10246000E550BFF35F8F0C4B00221A6086F3108893
:1024700070BDA2000B4B0021D1500122A2400A499D
:102480000B7893430B7005492000FFF72BF80021D0
:102490002000FEF7BBFEE4E7280100D0F122001087
:1024A0003860054090140020A31C0020F0B5DE46E3
:1024B00000B584B00400150001921E000293FFF7DE
:1024C00069FF03958E4202D84ED185424CD9EFF375
:1024D000108B72B6274B1B68002BFBD0BFF35F8FAE
:1024E000254A17780125A540EBB23B431370234BD7
:1024F0005D63221D92000199D150A20020490298EB
:1025000050501B6A2B4212D11C4B1B6C2B4208D023
:102510000020BFF35F8F174B00221A608BF31088E7
:1025200023E0184B184AC121184800F0B5FAFFF70C
:1025300031FF8E4214D802D1039B834210D80E4B38
:102540001B78BB420ED00D4B1D625D631F20044003
:102550000123A3400E4A1360074B1F701E38D8E7B3
:102560000020D6E70120D4E7012004B080BCBB46A0
:10257000F0BDC046280100D0A31C0020004005404B
:10258000741C0020D4F2001030F30010F8F2001098
:1025900080E200E0EFF3108C72B60B4B1B68002B4F
:1025A000FBD0BFF35F8F01238340084A13620849C1
:1025B0000A789A430A70BFF35F8F034B00221A60B8
:1025C0008CF310887047C046280100D000400540B9
:1025D000A31C002010B500291ED0037B99421BD8F4
:1025E0004B005B18033B0468A4466344002919D0E0
:1025F000002A1DD0914221D0002A25D0047BA2427E
:1026000022D8046850008018033820188170197887
:1026100000291FD11A7010BD104B114A68211148B2
:1026200000F03AFA104B114A6F310E4800F034FABC
:102630000F4B0E4A70210B4800F02EFA0D4B0B4A3F
:102640007121084800F028FA044B054A6821054822
:1026500000F022FA41701A70DDE7C046F8EF001072
:1026600048F4001014F0001054F0001034F400107E
:1026700060F000106CF0001070B506000D00140042
:10268000002914D0002A14D0806873689847002865
:1026900006D0220029003000FFF79CFF280007E049
:1026A0002A0021003000FFF795FF200000E0100015
:1026B00070BD0800FCE7000010B500234373013330
:1026C0008373037BC3730123027B9A4214D9002BCB
:1026D0000CD0027B934209D85A00D218033A016801
:1026E0008C4662440133DBB25370EDE70B4B0C4A6E
:1026F00068210C4800F0D0F9002A09D0924207D88E
:10270000016853009A18033A8A180023537010BDC9
:10271000024B034A6821034800F0BEF9F8EF0010AD
:1027200048F4001014F0001010B50173426083608B
:10273000FFF7C2FF10BD000070B50400081E00D1F5
:1027400070BD002934D0237B994231D84B005B18EF
:10275000033B2268944663445A78002AF0D02DD077
:10276000237B9A422AD853009B18033B21688C464E
:1027700063445D7800215970002825D0237B98425E
:1027800022D843001B18033B21688C466344002178
:10279000597001002000FFF76FFF0600290020009C
:1027A000FFF7CAFF020031002000FFF765FFC7E70F
:1027B000084B094A6821094800F06EF9054B064AA2
:1027C0006821064800F068F9024B034A6821034873
:1027D00000F062F9F8EF001048F4001014F0001057
:1027E00070B505000C001600002928D02DD0037B01
:1027F00099422AD84B005B18033B02689446634415
:102800005A78002A27D19A78002A2AD11978FFF716
:1028100093FF0300002E03D0EA7B002A27D1EC733C
:10282000002B37D1002C49D02B7B9C4246D82B68FB
:1028300061000C19033C1C190023637070BD224B0E
:10284000224A3821224800F027F9224B224A6821E7
:10285000224800F021F9224B1C4A3A211C4800F082
:102860001BF9204B194A3B21194800F015F9002AA1
:102870000AD0297B8A4207D851008A18033A29686E
:102880008C4662445470CAE7124B134A68211348BD
:1028900000F002F9002B0BD02A7B934208D84300AA
:1028A0001B18033B2A689446634400229A70B9E7D8
:1028B000084B094A6821094800F0EEF8054B064A22
:1028C0006821064800F0E8F864F3001020F40010D6
:1028D0006CF30010F8EF001048F4001014F0001032
:1028E0009CF30010C4F3001070B504000A00457B8F
:1028F0002900FFF775FF6073280070BD70B50400F4
:10290000002967D0437B8B420ED0002911D0037B76
:1029100099420ED84B005B18033B0268D0188378AD
:10292000002B0CD1002056E00121FFF7DDFF012034
:1029300051E0294B294A6821294800F0ADF8002BC5
:1029400020D0227B93421DD85A00D318033B226823
:10295000D2182568EB5C8B421AD0002B1BD0227B4F
:10296000934218D85A00D318033B2268D2185378E0
:102970008B4216D0002BF0D11A4B1B4A67211B4803
:1029800000F08AF8144B154A6821154800F084F8C5
:102990004378137007E0104B104A6821104800F08C
:1029A0007BF843785370002383704370012220002A
:1029B000FFF716FF0200617B814205D02000FFF780
:1029C0005BFE6073012006E0094B074A6D21074852
:1029D00000F062F8002070BDF8EF001048F400101D
:1029E00014F0001078E5001008F400106CF30010EB
:1029F000E8F3001010B50400FEF776FB010020009C
:102A0000FEF7E2FEFF232371BFF35F8F10BD10B509
:102A10000400FEF769FB01002000FEF7D5FEFF234E
:102A2000237100236371BFF35F8F10BD034B9C467E
:102A3000614489000160BFF35F8F7047400000343C
:102A400010B504000120FEF75DFB01002000FFF738
:102A5000EDFF10BD00BEFDE703000A4A1268002A20
:102A600008D0084A1068C318074A9A4206D3054A94
:102A700013607047034A05491160F2E701204042A4
:102A8000F7E7C0464016002000000420A41C0020E8
:102A900010B5FFF7DFFF000010B582B00C00190081
:102AA000002A0CD0084B002A0BD00192009323007F
:102AB0000200064802F042FE0120FFF7CBFF044B64
:102AC000F1E7034AF1E7C04614F5001024F50010C1
:102AD00038E5001070B52B4B2B4A1A602B4B2C4A53
:102AE0001A602C4B9A682A4B9343FAD12A4C01E086
:102AF00008CC9847294B9C42FAD300F001F9234BAC
:102B0000274A1A60234B9B68DB43DB01FAD1254B34
:102B100040229A675A671A67DA66234C09E0234B0A
:102B2000234A83212348FFF7B7FF2000FFF762FF06
:102B30000834214B9C4209D22368002BF5D0012B8D
:102B4000EDD12000FFF763FF0834F2E71B4CA168CA
:102B50001B4DC022280002F03BFCA560FDF783FB63
:102B6000002800D000BEFEF7AFFAFEF707FEFFF721
:102B700069F9144C01E008CC9847134B9C42FAD3F6
:102B800070BDC04600E00040BFCDFBFE00F000403D
:102B9000FE7F3C0000C00040B80E0020C80E0020A0
:102BA000FFFFFF0100F00140B00E002054F50010BF
:102BB000BCF5001074F50010B80E002000ED00E028
:102BC00000000020C80E0020D00E00200FB400B579
:102BD00083B0084802F080FD049B002B07D005A9B4
:102BE0000191180002F088FD034802F075FD0120F4
:102BF000FFF730FFACF500104CE50010F8B5DE46ED
:102C000057464E464546E0B505000F0092460A9AE3
:102C100093424ED31A0E91461E020A9A00233000A8
:102C2000494601F08FFB80466C006419A4002F4BCD
:102C30009C4664446368834200D260602B1FDBB211
:102C40009B46012B3BD9C0239B01234380221201C9
:102C50001A60AB00264A9958002905D0506901F046
:102C60002FFB01300138FDD153465A0123685A40E9
:102C7000E0231A4080235B0123431A605A46012A4D
:102C800028D980239B012343802212011A604346E6
:102C90006360424600233000494601F053FBAD001B
:102CA000134B58510120F0BCBB46B246A946A04682
:102CB000F8BD104B104A2D211048FFF7EDFE012FF3
:102CC000C1D1C0239B01234303221A60A368DB0701
:102CD000FCD5C9E72168794003220A401A60A2683E
:102CE0000123BB401342FAD0CBE7C046008000402E
:102CF000A4150020CCF500101CF60010E0F5001023
:102D000030B583B00C2000F041F9FEF7D3F900286C
:102D10000DD0002304E099002D4A2E48885001333D
:102D2000092BF8D92A4B2C4A5A6203B030BD2B4BE1
:102D300000229A6700F09CF9294B01221A60274B68
:102D40005B6C012BFBD1274B03221A60234B9B6B3F
:102D5000012BFBD1013300930433234A0121234883
:102D600000F074F805230093214A0121214800F066
:102D70006DF8214B0093002202210420FFF73EFF53
:102D80001E4D00952B00002201210520FFF736FF84
:102D9000104C00942300002200210720FFF72EFF93
:102DA00000942300002200210820FFF727FF0A4B90
:102DB00000932300002200210920FFF71FFF009548
:102DC0002B00002200210620FFF718FFADE7C046C8
:102DD000A4150020006CDC021BB70000008000403E
:102DE0003CB0004030B00040002F685900800240E5
:102DF000008C864700C00240001BB7004059730793
:102E00008000014BC0587047A415002010B5040085
:102E10000D4B9B69DB05FBD40420FFF7F1FFFA2182
:102E2000890001F04DFA084B18600A221A6100224D
:102E30005A60013A9A605C61034B9B69DB06FBD5E3
:102E4000014BD869400910BD80800040F0B5C646EE
:102E500000B504000F0090461D000C2001F030FA70
:102E600006003D4A42443D4B9A4243D843011B1A57
:102E70009901C91AC90009188901404601F020FAD0
:102E80000200103A98235B009A4239D86B1E062B39
:102E90003CD8069B013B062B38D8069B9D423BD372
:102EA00043461A09B2423DD32D04069B1E03354307
:102EB0002368002B3CDB2A4B9C424AD080225201E3
:102EC000284B1A60284B1A60284B9B6811009943C5
:102ED000FAD12760A060231DC02292011A4321234A
:102EE00013602368002BFCDAE5600823136080BCC4
:102EF000B846F0BD1E4B1F4A11211F48FFF7CCFDFD
:102F00001E4B1C4A19211C48FFF7C6FD1C4B194AD1
:102F10001C211948FFF7C0FD1A4B164A22211648FA
:102F2000FFF7BAFD184B134A25211348FFF7B4FDEC
:102F300022683F231340BB42BDD1A3681B051B0D74
:102F40008342B8D1E368EE22D2021340AB42B2D141
:102F5000CDE780229201B3E780E84BD380F8A93215
:102F600000C0024000E0004000F0004000C000400F
:102F70002CF600105CF700108CF60010C0F6001064
:102F8000DCF6001028F7001040F7001080239B00AB
:102F90000343014AD362704700800540024B1A6820
:102FA000024B5A607047C046441A0020008005401A
:102FB00010B50200164B8020C0051860154B16484E
:102FC000186000290AD0154BE021C9041960002AB5
:102FD00009D1124B802212061A6010BD0C4BE02161
:102FE000C9041960F3E753019B1A98008018000187
:102FF0000B4B186080235B04984202D3084B094AAC
:103000001A60FFF7CBFF054B8022D2051A60E4E778
:1030100000B0054008200140FCFF010000A0054071
:10302000441A0020FFFFFF0010B5030010000C4AF7
:103030008024E4051460002B0DD001221343094ABB
:10304000094CD461094C5C401462516293620021C6
:10305000FFF7AEFF10BD034B0022DA61F7E7C04671
:1030600000B0054000800540D3C007B02D3FF84FA9
:10307000064BAA2212011A602F22DA60044B054A7D
:103080001A60024B5B68002BFBDA7047004002407D
:103090000060024000B0FA009A4200D288547047A3
:1030A000704710B5002802D00B684968984710BDDA
:1030B0000100002007E083001B185B00501C086023
:1030C0001078C01830380A681378303BDBB2092B0F
:1030D000F1D97047F0B5DE4657464E464546E0B555
:1030E00083B093461F000C9B9A460D9C0E9B9946FD
:1030F0000F9B9B0703D0B8460F00060022E0019209
:10310000A34688464E46B9460700B44207D2551C2E
:103110004B4641462020B84701342A00F5E73D00E0
:103120004F465C46019B9B46B1464646B846370033
:103130002E0007E0013C551C5346185D43463900FC
:10314000B0472A00002CF5D135003E0047460F9BC2
:103150009B0707D4100003B0F0BCBB46B246A9469B
:10316000A046F0BDB0464E46B9462F005D46531B03
:10317000B342EFD2541C4B4641462020B8472200B0
:10318000F5E7F0B5CE46474680B585B094469846FB
:103190000C9D0D9C0EAB1B789946109A119B129EAC
:1031A000B7071CD4002B0CD0F7070AD54F46002FC9
:1031B00002D10C37374204D0013B02E030272F55B3
:1031C0000134944201D21F2CF8D9F70707D59C424D
:1031D00005D21F2C03D830272F550134F5E7F70609
:1031E00015D5770505D4002C03D0944224D09C42F9
:1031F00022D00F9A102A2BD00F9A102A30D00F9A73
:10320000022A35D01F2C02D830222A5501341F2C17
:1032100005D84A46002A31D02D222A55013403967A
:1032200002930194009543466246FFF753FF05B0B1
:10323000C0BCB946B046F0BD621E012C06D00F9F3F
:10324000102F01D01400D4E7023CD2E71400D0E7DD
:10325000B206D1D41F2CCFD878222A550134D1E719
:10326000B206CCD51F2CCAD858222A550134C9E73A
:103270001F2CC7D860322A550134C3E7720703D523
:103280002B222A550134CAE73207C8D520222A55F5
:103290000134C4E7F0B5DE4657464E464546E0B534
:1032A00093B081468A46089209931CAB10CB1B78D9
:1032B0009B461E9D219B9846002C03D1102342461D
:1032C0009A4390468023DB0046461E4042461A42FF
:1032D00012D0002C22D000260EE03033D9B2771C59
:1032E0000AAB99552900200000F0EAFFAC4216D342
:1032F0001F2F14D83E0004002900200000F0E0FF3A
:10330000CBB2092BE9D94246920605D54121C9180D
:10331000C9B20A39C9B2E2E76121F8E7270043469A
:103320000693209B05931F9B049303955B46029392
:1033300001970AAB0093099B089A51464846FFF74C
:1033400020FF13B0F0BCBB46B246A946A046F0BD74
:10335000F0B5DE4657464E464546E0B595B0089076
:1033600009910A920B931E9E1F9C20AB1B789B46D3
:10337000229B9946239D269B9A463300234303D1E3
:10338000103352469A4392468023DB0057461F4033
:1033900052461A4219D0330023432DD0002714E09F
:1033A0003033DAB27B1C98460CABDA554A462B0018
:1033B0003000210000F0C6FFA5421FD819D04346B7
:1033C0001F2B1BD8474606000C004A462B00300036
:1033D000210000F0B7FFD3B2092BE1D95246920683
:1033E00005D54122D218D2B20A3AD2B2DAE7612226
:1033F000F8E7B145E3D901E0002398465346069328
:10340000259B0593249B04934B4603935B460293B1
:10341000434601930CAB00930B9B0A9A09990898B9
:10342000FFF7AFFE15B0F0BCBB46B246A946A046BA
:10343000F0BD0000F0B5DE4657464E464546E0B5C5
:1034400091B083468A460C9298461A9C08941B9D1C
:10345000099522002B002000290001F00AFA00281B
:1034600000D0E5E001225242D74B2000290001F0B4
:10347000FBF9002800D0DBE001225242D34B2000B0
:10348000290001F0DBF9002800D0D1E00022002360
:10349000089E3000099D290001F0D0F9002800D0D5
:1034A000DDE008980999069007918023DB001E9AB9
:1034B0001A400D921E9A1A4201D106231C930698B7
:1034C000079904000D000A000600024300D1D1E074
:1034D000080D4005400DBE4CA44660440A03120B83
:1034E000BC4B13431F0001F0D7F9BB4ABB4B01F0A3
:1034F0005AF9BB4ABB4B01F02FF904000D00002222
:10350000B94B3000390001F01EF9B84AB84B01F050
:103510004AF902000B002000290001F01DF901F01A
:10352000D3F9814601F0B8F904000D00B14AB24B5D
:1035300001F039F90022B14B01F00EF901F0C4F9A4
:103540000600AF4AAF4B2000290001F02CF904001F
:103550000D00300001F0A0F9AB4AAC4B01F023F9AB
:1035600002000B002000290001F0EDF804000D001E
:1035700002000B0001F017F90A900B91A44BF3180D
:1035800000261F0522002B002000290001F0E4F88E
:103590000E900F9122002B0000208021C90501F020
:1035A000D2F804000D0000229A4B0A980B9901F002
:1035B000DCF80022984B01F0CFF802000B000A98CB
:1035C0000B9901F0D2F80022944B01F0C5F80200EB
:1035D0000B000A980B9901F0C8F802000B002000BC
:1035E000290001F0B9F802000B000E980F9901F0C4
:1035F000BCF80022774B01F0AFF832003B0001F03D
:10360000D2F806000F0004000D00069A079B01F097
:103610002BF9002830D001235B429C46E144002274
:103620007D4B3000390001F0A0F804000D0023E0CC
:103630001E9B04931D9B03931C9B0293089A099B5A
:103640000092019343460C9A5146584600F0FCF80C
:1036500011B0F0BCBB46B246A946A046F0BD00235F
:10366000002406930794069680231B069C46654417
:1036700007951AE7002399464B466333C62B1ED89D
:1036800004261E9B1B0526D52B0023430FD0644A1E
:10369000644B0698079901F0DFF8002879D00022E2
:1036A000614B0698079901F0C9F8002871D01C9B5E
:1036B0004B4506DD4A46981A431E1C9303E0052637
:1036C000DFE700231C938023DB001E9A1A431E921F
:1036D0000026002399461D9B9E4264D29F1B022315
:1036E0001E9A1A400A921E9A134202D0002E00D04F
:1036F00000274B46002B07D022002B000698079985
:1037000001F033F8069007910022002308980999E8
:1037100001F094F8002848D1444B1E9A13400493BA
:1037200003971C9B0293069B079C009301944346BE
:103730000C9A5146584600F087F8002E00D187E7D2
:103740001E9B9B063DD54525441C43460200514621
:103750002800D8474B46DA179B185340052205929C
:10376000013E0496002203920A3202924A46D00F8A
:10377000019000934346220051465846FFF78AFDC8
:103780000A9B002B00D163E702005F460C9E1D9D43
:1037900054E01C9B002B9ED00D9B002B9BD01C9BB0
:1037A000013B1C9397E7002799E7069C079D2200A1
:1037B000290080200006844661440B00069207938E
:1037C000AAE76525C0E7C046FFFFEF7FFFFFEFFFD9
:1037D00001FCFFFF0000F03FFB799F501344D33FF3
:1037E000B3C8608B288AC63F0000F83F61436F630F
:1037F000A787D23F71A379094F930A400000E03FA9
:103800001655B5BBB16B0240EF39FAFE422EE63FCA
:10381000FF03000000002C4000002440000018407E
:103820002D431CEBE2361A3F80842E41FFF7FFFF49
:10383000541C434651462020B8472200931BAB42FC
:10384000F6D3100004E7C046F0B5DE4657464E46B4
:103850004546E0B595B00690079193469946209F5E
:103860001E9A1F9B1000190001F003F8002831D1A7
:1038700001225242BF4B1E981F9900F0DFFF002823
:1038800037D101225242BC4B1E981F9900F0ECFF29
:1038900000283DD10022B94B1E981F9900F0E4FF8B
:1038A000002850D10022B64B1E981F9900F0C6FF89
:1038B000002848D1002200231E981F9900F0BEFF67
:1038C000002850D100239846229B5B0500D4B6E027
:1038D000002458E0229B0393219B0293032301932E
:1038E000A84B00934B465A4607990698FFF7F2FB00
:1038F0000EE1229B0393219B029304230193A24B8D
:1039000000934B465A4607990698FFF7E3FBFFE002
:103910000423229A1A4022990B4210D09B4B002A72
:103920000FD00422229903912199029101920093D0
:103930004B465A4607990698FFF7CCFBE8E0944BB4
:10394000EDE70322EEE7229B0493219B039302976A
:103950001E9B1F9C009301944B465A46079906985C
:10396000FFF768FDD4E01E9A1F9B0020002100F0A5
:10397000EAFE1E901F9101239846A5E70CAB30226A
:103980001A55013F01341F2C01D8092FF6D81E9873
:103990001F9900F099FF050000F07EFF02000B0068
:1039A0001E981F9900F0CFFEFA007A4B9B181A68F8
:1039B0005B680A920B9300F0F6FE0890099100F004
:1039C000A7FF060000F064FF02000B0008980999A9
:1039D00000F0B9FE0890099100226F4B00F044FFFF
:1039E00000282ED00136300000F052FF02000B00FC
:1039F0000A980B9900F028FF002801D00135002615
:103A0000002F2CD1280000F047FF02000B001E9869
:103A10001F9900F098FE06000F0000225E4B00F098
:103A20000DFF002846D100225B4B3000390000F02A
:103A30001BFF00283ED1EB073CD501353AE00627B5
:103A400046E70022544B0898099900F0F7FE002839
:103A5000D6D1002E01D0F307D2D50136D0E7AA4641
:103A60001F2C11D8013F0A21300000F029FC651CF1
:103A700030310CAB19550A21300000F021FC092E21
:103A80000ED906002C00EBE755461F2C0CD87B1EE8
:103A9000002F09D00CAA302111551F000134F4E782
:103AA0002B0055461C00F0E71F2C03D80CAB2E2230
:103AB0001A5501341F2C10D80A21280000F0D8FB19
:103AC000661C30310CAB19550A21280000F0D0FBE0
:103AD000051E01D03400EDE734000323229A134081
:103AE000012B1CD01F2C06D84346002B32D00CAB28
:103AF0002D221A550134229B0393219B029301949A
:103B00000CAB00934B465A4607990698FFF7E2FA2A
:103B100015B0F0BCBB46B246A946A046F0BD219BFD
:103B2000002B13D04346002B02D10C3313420FD08D
:103B3000219B013B2193190003E00CAB30221A5565
:103B400001348C42CED21F2CF7D9CBE72199F8E76C
:103B50002199F6E7229B5B0704D50CAB2B221A5563
:103B60000134C8E7229B1B07C5D50CAB20221A5590
:103B70000134C0E7FFFFEFFFFFFFEF7F65CDCD41D1
:103B800065CDCDC174F7001078F700106CF7001008
:103B900068F7001060F900100000E03FF0B5DE4665
:103BA00057464E464546E0B593B082468B46904612
:103BB0001193002900D1EBE200275546119B18789C
:103BC000002800D1E7E2252809D07C1C43463A00B2
:103BD0005946A847119B013311932700EEE70133A3
:103BE00011930024119A11780B00203BD8B21028B1
:103BF00003D88300D048C3589F460B00303BDBB24C
:103C0000092B2CD92A292FD000230A93119B1A782B
:103C10002E2A39D000239A46119A1378683BD9B2DC
:103C2000122976D88B00C549CB589F4601231C43E7
:103C300001321192D6E702231C4301321192D1E7DF
:103C400004231C4301321192CCE708231C430132A8
:103C50001192C7E710231C4301321192C2E711A849
:103C6000FFF726FA0A90D1E71C9B1A1D1C921868D0
:103C7000002804DB0A90119B01331193C6E702234D
:103C80001C4343420A93F6E78022D20014435A1C95
:103C900011925A781300303BDBB2092B04D92A2A3F
:103CA00007D000239A46B7E711A8FFF701FA82462A
:103CB000B2E71C9B1A1D1C921868002804DB824680
:103CC000119B01331193A7E70020F8E780235B00E5
:103CD0002343511C119152786C2A01D01C0018E02A
:103CE000C0239B001C430131119112E08023234328
:103CF000511C11915278682A01D01C0009E0C023A0
:103D00001C430131119104E080235B001C4301320C
:103D10001192119B18780300253BDAB2532A00D97F
:103D20002CE29300864AD3589F4680239B001C4375
:103D300001321192EDE780235B001C4301321192A6
:103D4000E7E7782809D0582838D06F2838D062287B
:103D500038D010239C430A2600E01026582833D080
:103D6000692803D0642801D00C229443630501D54F
:103D70000122944369282AD0642828D0A30500D5BD
:103D80009FE0E30500D5B8E0630600D4CAE01C9AC2
:103D9000111D1C911168FF220A4005940A9B04938F
:103DA00053460393029600230193009243463A0040
:103DB00059462800FFF76EFA070027E01026CDE7E6
:103DC0000826CBE70226C9E720221443C8E7A3054B
:103DD00020D4E30550D4630666D51C9A111D1C91AE
:103DE0001168FF220A40D317D118594005940A9B45
:103DF0000493534603930296D20F019200914346D7
:103E00003A0059462800FFF745FA0700119B013395
:103E10001193D3E61C9BDA1D07218A431100083158
:103E20001C91116853689C46DB170C930D930C9AF8
:103E30000D9B100048400E90624653400F930E9821
:103E40000F990C9A0D9B801A99410E900F9108942E
:103E50000A9B0793534606930496002305936346F3
:103E6000DA0F02920090019143463A005946280029
:103E7000FFF76EFA0700C9E71C9A111D1C91126822
:103E8000D317D118594005940A9B049353460393C2
:103E90000296D20F0192009143463A0059462800FB
:103EA000FFF7F8F90700B1E7230605D51C9A111DA5
:103EB0001C910023D25E96E71C9A111D1C9112687A
:103EC00091E71C9BDA1D07218A43110008311C91E0
:103ED00008940A9B07935346069304960023059380
:103EE0000293136854680093019443463A0059467C
:103EF0002800FFF72DFA070088E71C9A111D1C9176
:103F000005940A9B0493534603930296002301935E
:103F10001368009343463A0059462800FFF7BAF960
:103F2000070073E723060DD51C9A111D1C9112681A
:103F30001204120C31E7C04680F70010C4F70010DD
:103F400010F800101C9A111D1C91126825E74628D4
:103F50001AD01C9B0733072293431A0008321C9285
:103F600004940A9A0392524602925C681B6800937A
:103F7000019443463A0059462800FFF765FC0700C4
:103F8000119B0133119319E620231C43E1E76728B5
:103F900001D0472802D180231B011C43452801D0B2
:103FA000472801D120231C431C9B0733072293433E
:103FB0001A0008321C9204940A9A03925246029202
:103FC0005C681B680093019443463A0059462800F8
:103FD000FFF730FA0700119B01331193EEE502233E
:103FE0001A002240924623421FD001241C9B1A1D16
:103FF0001C927A1C9146187843463A005946A847C5
:104000005346002B16D1119B013311934F46D5E532
:10401000561C434659462020B847230032005C1CFA
:104020009D42F5D83D001700E0E701233A002F003C
:104030000A9DF4E74A46A9460A9D06E0571C4346F6
:1040400059462020C84734003A00661CA542F5D8DE
:104050004D469146D7E71C9B1A1D1C921B6899463A
:104060005346002B00D1013B4E4601E001361300C0
:104070003278002A02D05A1E002BF7D14B46F21A92
:1040800010928023DB0026001E401C4203D05245C4
:1040900001D95346109302231A0022400B92234267
:1040A00005D03A0037004C46A946554620E03A0074
:1040B000109B5F46B3462E0006E0551C4346390070
:1040C0002020B04723002A005C1C0A999942F4D8AA
:1040D00035005E46BB46109437004C46A94655460F
:1040E00006E01D000134561C43465946C8473200BD
:1040F0002078002804D0002FF4D06B1E002DF0D1C2
:1041000017004D460B9B002B03D1119B01331193DC
:1041100054E50A9F109B06E0561C43465946202052
:10412000A847230032005C1C9F42F5D81700ECE73B
:1041300021231C431C9B1A1D1C921B680093059491
:1041400008230493534603931023029300230193FF
:1041500043463A0059462800FFF79CF80700119B98
:10416000013311932AE57C1C43463A005946252029
:10417000A847119B0133119327001FE57C1C434680
:104180003A005946A847119B01331193270015E5C2
:104190000A4B9A4610E5AA46474502D343465A1EA3
:1041A00000E03A00434659460020D047380013B09B
:1041B000F0BCBB46B246A946A046F0BDA1300010F7
:1041C0000EB410B585B0010007AC08CC03940122F1
:1041D000009452420348FFF7E1FC05B010BC08BC54
:1041E00003B018479930001000B585B002900391D4
:1041F0000121009313004A4202A90248FFF7CEFCB6
:1042000005B000BDA330001001480421014B184740
:10421000A00400203942001010B5010018231B88AB
:1042200014221088984710BD10B5010018231B8870
:1042300016221088984710BDF0B5C64600B5070095
:104240000E0000250123984600E00135B5420AD250
:10425000AC003C192068FFF7DFFF20600028F4D194
:1042600000239846F1E7404680BCB846F0BD000008
:10427000124A936F9B0815D29066D166002905D02B
:10428000FFE7FFE7FFE7516F106F704704B580212C
:104290000906C2175140002800D0C8430AF000F9AF
:1042A000002104BDF0B5146E556E576F166FFFF701
:1042B000E3FF1466556657671667F0BD000000D02F
:1042C000114A936F9B0813D210665166002905D0DE
:1042D000FFE7FFE7FFE7516F106F704704B5002855
:1042E00001D00020C0430AF0DBF8002104BDC04625
:1042F000F0B5146E556E576F166FFFF7E5FF146635
:10430000556657671667F0BD000000D094464E4AC8
:10431000926F9208624601D230E0C046F0B54A4E34
:10432000B56F6D08FCD3346E756E776F366F00F025
:1043300025F89446444A14665566576716676246E0
:10434000F0BDC0469446404A926F9208624601D240
:1043500058E0C046F0B53C4EB56F6D08FCD3346EE6
:10436000756E776F366F00F04DF89446364A1466D6
:104370005566576716676246F0BDC046002B24DBC2
:1043800011D000293EDA00B5C943404200D10131C5
:1043900000F038F8C943404200D10131DB435242BA
:1043A00000D1013300BD002AEBD1002801D1002942
:1043B00005D00020C90FC90701D1C043410800B58D
:1043C0000AF066F80022002300BD00B500290ADBD0
:1043D000DB43524200D1013300F014F8C94340429C
:1043E00000D1013100BDC943404200D10131DB435E
:1043F000524200D1013300F005F8DB43524200D1B4
:10440000013300BD002923D1002B18D1002A0CD084
:10441000BC460D4F38667A6600210023FFE7FFE7B0
:10442000FFE77A6F386F67467047002801D007486A
:10443000010000B50AF02CF80022002300BD0200A4
:104440000B00002000217047000000D0FFFFFFFF9D
:10445000002B00D0BFE0130C28D1002AE7D080B495
:10446000114F39667A66FFE7FFE730B4040C7B6FC3
:10447000396F1B0423433B667A66FFE7FFE7FFE7DC
:10448000C04684B27B6F3D6F1B0423433B667A6654
:10449000FFE7FFE7C04600232C042D0C7A6F386F2E
:1044A00000196941B0BC7047000000D0F0B59446D7
:1044B0000025140E01D112020835140F01D112018A
:1044C0000435940F01D192000235D40F01D152006E
:1044D0000135D40B0134254F7C66254C3C660E0C0F
:1044E00093B2FFE7FFE7FFE73C6F6643360C7703C5
:1044F000BE467343DF0B5B04C01AB941130C734310
:10450000DB18C91ACE086643360CB64493B273431F
:104510001F0F1B01C01AB941130C73431F0B1B055E
:10452000C01AB941860D8F023E436643360C092DF1
:1045300024DB520A7243801A7703460A6643360C1C
:1045400016235B1BDE40DF40BF1964466643821BB7
:104550007046043506330100D940A840C01900D385
:104560000131A24206D20023F0BD0000000000D0BD
:10457000FFFFFFFF121B0130F3D3F1E709277F1B79
:10458000FE406446A2B27243801A00D20139220C66
:104590007243130C1204821A99410B0070460435C1
:1045A00013370100F940A840801900D30131002BD6
:1045B00002D1A2420AD2F0BD013000D30131121B58
:1045C000FAD2013BF8D1A24200D2F0BD013000D3B3
:1045D0000131121BF7E7F0B51C0C00D080E00CB4E1
:1045E00000251C0A04D11B02160E334312020835A3
:1045F0001C0B04D11B01160F3343120104359C0B15
:1046000004D19B00960F334392000235DC0B02D19C
:1046100092185B4101351C00971864410134464FE4
:104620007C66464C3C660E0CFFE7FFE7FFE7C046A2
:104630003C6F6643360C7703BE4697B27743C01B88
:1046400000D20139C01B00D201399FB27743C91B88
:10465000C91B170C77437E04FF0B801BB941CE08A2
:104660006643360C0C2D33DBB644120B1F053A4360
:104670001B0B97B27743C01B00D201399FB277431F
:10468000C91B170C77433E043F0C801BB941860DB4
:104690008F023E43664329277F1BFE400C3D774631
:1046A000AF40BF1930BCA2B2ABB272437343801AA1
:1046B0009941220C7243130C1204801A9941020092
:1046C0000B000137001BA941F9D2781E0021F0BD73
:1046D0000C277F1BFE4077467F0BAF40FF19E0E7BA
:1046E00000245D1C07D0144F7D663966FFE7FFE7A5
:1046F000FFE7FFE73C6F95B29EB265436643401B00
:10470000B141150C1E0C6543664336042F0C3E4325
:104710002D04401BB141994204D202000B0020003D
:104720000021F0BD01D19042F7D3801A99410134A4
:104730009942F2D3F6E70000000000D0FFFFFFFF30
:1047400048404140484018B41B4B5B68FC4601930D
:1047500008BD04DFB34A001018B4174B1B68FC46B1
:10476000019308BD00DFBD4A00109446134A926FC2
:10477000920809D2624618B40F4BDB68FC460193DD
:1047800008BD0CDF754D00100C4AF0B5146E556E67
:10479000576F166F6246FFF7EEFF084A14665566BC
:1047A00057671667F0BD18B4034B9B68FC4601932E
:1047B00008BD08DF194C0010641A0020000000D06A
:1047C000FFB550404240504059404B40594000E0F6
:1047D000FFB5154F4C00640D03D0BC4204D10C034F
:1047E00014D80020090D09055C00640D03D0BC42FB
:1047F00004D11C030AD800221B0D1B0501264B40C7
:1048000009D44B4003D58B4200D18242FFBD99426F
:10481000FCD19042FFBD0B43DB1803431343F5D09B
:10482000C9434918FFBD0000FF07000000B5FFF7AE
:10483000CFFF01D0002000BD012000BD00B5FFF773
:10484000C7FF804100BDC04600B5FFF7C1FF01D9D9
:10485000002000BD012000BD00B5FFF7B1FF01D968
:10486000002000BD012000BD00B5FFF7A9FF804179
:1048700000BD012040054A00121804D85A00121841
:1048800001D80020704701207047002070470000C9
:104890000021002805D17047C1174840401AFAD0BE
:1048A000C90713B5064B1B6898470CBC441CA240B3
:1048B0001005120B0349091B09051943114310BDCB
:1048C000641B00201F04000010B54C00620D802303
:1048D000D218DB00D21A5B057E2A10DD9E3A13DA6D
:1048E000CC170903490819435242D14064000134EE
:1048F0001532202A05DAD0400843604310BD00205D
:1049000010BD0846604310BDC80FC018013810BD67
:1049100018B4044B5B6AFC46019308BD24DF254FA5
:1049200000100000641A002018B4044BDB6DFC4634
:10493000019308BD5CDF315000100000641A0020B4
:10494000C94211D300B549004908002200F018F807
:10495000002904D4002240428A41114600BD802132
:104960000906002000BD000018B4044BDB6EFC46B5
:10497000019308BD6CDF334F00100000641A002063
:1049800018B4044B9B6FFC46019308BD78DF4F4F72
:1049900000100000641A002018B4044BDB6FFC46C2
:1049A000019308BD7CDFBD4F00100000641A002099
:1049B00070B513231C78012C14D0012C14DC022CAC
:1049C00002DC1F4A1F4B9A641F48FFF725FC1F4B50
:1049D000186070BD99001A481A4A885001331F2B7D
:1049E000F8D9EAE70023FAE71948FFF71DFC0500AC
:1049F0001848FFF719FC023803789B007F2B19DD5C
:104A0000802229000F4800F0E3FC022CD7D1124B82
:104A10001A88B5231B029A4209D1104B1A88104BF1
:104A20009A4204D10F4B1A880F4B9A42C7D00020EC
:104A3000FEF7CCF80D4B0E4A32210E48FEF72CF84B
:104A4000794A0010641A00204C330000641B0020D7
:104A5000534400005346000054380000D83800008A
:104A6000494600009C38000059460000B0F900108B
:104A700050FA001010FA001007B56046002800D167
:104A800000BE01880A0A0230DF2AFAD1C9B28208C0
:104A900004D3028840880004104300E00068024A02
:104AA0005050039007BD0000641A00200FB403BCEF
:104AB0000CBCF0B50124E407634000E0F0B50C0D38
:104AC000CF0F661E3605891B640503D3C9434042D8
:104AD00000D30131640D03D0661CF60A07D0E41B35
:104AE00000207F00791C89078912803C24031D0D5A
:104AF000DF0F6E1E36059B1B6D0503D3DB43524251
:104B000000D301336D0D03D06E1CF60A07D0ED1BE8
:104B100000227F007B1C9B079B12803D2D032F1BD7
:104B2000661B58D4A446202E46DA20371400BC4019
:104B30001D00BD40F24033412A4380185941CB0F3C
:104B400005D0C943C04300226442504151416246EE
:104B50004D0D28D10D0D07D100281FD0241940413B
:104B60004941013A0D0DF9D0640006D3013000D35C
:104B70000131002C01D140084000013A0BD4941CB3
:104B8000E40A04D112051144DB071944F0BDD9072A
:104B9000204B194300E0D9070020F0BD0029DDD1EA
:104BA000002CDBD1F0BD0132C6074008CD072843F9
:104BB0004908002EE1D0D9E73C2E29DA203E4037C3
:104BC0001400BC4000D00124F24014431A00BB4042
:104BD0001C43D317ACE7AC46202F08DA203604007C
:104BE000B4400D00B540F84039412843A5E73C2FBB
:104BF0000CDA203F40360400B44000D00124F840D5
:104C000004430800B1400C43C117EAE71000190043
:104C1000002494E70000F07FF0B50C0D661E360509
:104C2000891BE60A6405640D02D0651CED0A04D0F8
:104C3000002001210905803C2403A4461C0D671EA9
:104C40003F05DB1BE70A6405640D02D0651CED0A15
:104C500004D0002201231B05803C240377406444D8
:104C600097B484B296B27443070C7E43150C6F431D
:104C700080B26843361802D3012000043F18300484
:104C8000350C00197D41844688B29AB250430C0C11
:104C900062431F0C7C438EB27E43921902D30126DD
:104CA0003604A4191604170C3618674101BC81B2EA
:104CB0009AB25143040C62431B0C5C4380B25843CC
:104CC000121802D30120000424181004130C4018F9
:104CD00063412D185E410020474106BC88B293B263
:104CE00058430C0C6343120C544389B251435B1874
:104CF00002D301210904641819041A0C091862412D
:104D00006D1856410020474118BCF902720D11433D
:104D1000F0026A0D1043ED020A0D03D16D194041F6
:104D20004941013B124E9B1B7600B3420ED26D00EF
:104D300007D30130002671416646354301D1400852
:104D400040001B05C918E4072144F0BD0BDA01330C
:104D500006D1013004D101314F0D01D04908F2E7ED
:104D6000E1070020F0BD013631050020EBE700002F
:104D7000FF030000F0B51C0D671E3F05DB1BE70AB3
:104D80006405640D02D0661CF60A04D000220123DB
:104D90001B05803C2403D0252D060026F6432E66F5
:104DA0001E096E66CE0FF619B44649004F0D02D0AB
:104DB0007E1CF60A03D000200021403F3F033E1B2B
:104DC000B600B444013F7F05C91B49082E6F013668
:104DD00076089C02950D25437543ED137543AD137D
:104DE00001356D10F603761B0CB4CC02450D2C4337
:104DF000A2B2B3B25A43270C7B43350C6F43A4B223
:104E00006C431B1902D3012424043F191C041D0CFC
:104E1000A4187D4124196D41009A91B2ACB261434E
:104E2000170C7C432B0C5F4392B25A43A41802D355
:104E300001221204BF182204230C52187B41019C4A
:104E40006C431B19520ED9010A434401A01A81B2C6
:104E5000B2B2514303145A43360C734387B27743BB
:104E6000D617D21900277E4136049B191704160C59
:104E70007F185E417316ED18F301002680337541EB
:104E8000A90F06D16400690AE8055B0A184309D234
:104E90002FE00422944480337541A90AA8059B0A97
:104EA000184326D3404149412404009A019B0D0038
:104EB0005543641B4343E41A95B286B27543170CFD
:104EC0007E43030C5F4392B25A43B61802D30122C9
:104ED0001204BF183204330C52197B4152429C41D8
:104EE000002C02D40022013051414008CA0710436F
:104EF000490802B06246D7079210084BD218084BF7
:104F00009A4203D212058918C919F0BD0020002A5F
:104F100001DC3900F0BD01331905F5E7FD030000A0
:104F2000FE070000002200B5203200F010F8080053
:104F300000BD002200B500F00CF8CA179A4200D15B
:104F400000BDD8430121C907414000BD00220B1517
:104F50000AD410B5944600F0A7F81414013400DA0E
:104F60000021CB17144C20470020002170476244D9
:104F7000343A0CD40C2A07DA040091409040524293
:104F80002032D440214310BDD843D94310BD203234
:104F900007D40C469440524220321141D040204365
:104FA00010BD0800C917203203D4524220321041EC
:104FB00010BD1800190010BD6F4F00104A00520DAF
:104FC000144BD21A13DDFF2A1EDAD205CB0FDB07F2
:104FD0001A43C300400F0903490A084310435B000A
:104FE00001D301D0013070474308FBD2704702D093
:104FF000C80FC00770470A0312130132F8D1420FDD
:10500000072AF5D1012200E0FF22C80F0002801814
:10501000C00570478003000000210A00002104E061
:1050200000210A00C11704E00022002306E0C04668
:105030000022CB1758405940C01A994130B5184C3E
:10504000A21A002903D1010010D00020203A4C15EB
:1050500012D104D2013A001849414C0DFAD3114C37
:10506000A24204D212058918DB07C91830BDD24309
:10507000520D00200021F5E703D4013A0018494100
:10508000FBD50B324405C00A4D052843C90A64000C
:1050900003D0002460416141E1E7E0D34408F8E730
:1050A00032040000FE0700000A0DCC0F531E1B0542
:1050B000C91A520503D3C943404200D30131520DEE
:1050C00003D0531CDB0A07D0121B00206400611CB4
:1050D00089078912803A1203014BD21A70470000E7
:1050E000FF03000051434343C9188C46110C83B29F
:1050F0004B4310B4040C614392B280B250436243FC
:105100001C041B0C001910BC59411304120CC018CC
:1051100051416144704700004840414048400023ED
:105120009C46114B5B68184700239C460E4B1B683E
:1051300018470E4A936F9B0804D200239C460A4BE3
:10514000DB681847F0B5146E556E576F166FFFF792
:10515000F4FF064A1466556657671667F0BD0023CC
:105160009C46014B9B681847681B0020000000D03C
:10517000491A002808D1084670470000C10FC90726
:1051800000D54042002817D0F44603B40B4B1B68EF
:10519000984706BC81409E384042803107D20B06BA
:1051A00007D04900490AC005104308436047013051
:1051B000F8E7490A8902F5E770470000641B002000
:1051C00000239C46014B5B6A18470000681B0020C7
:1051D000054A10470029FBD0044B5B6EFC4618477C
:1051E00064DF21530010000071510010681B002083
:1051F00070B513231D782A48FFF716F80400012D17
:1052000011D0012D09DDA31E1B789B007F2B40DDF3
:1052100080222100234800F0DBF82348FEF7FCFF42
:10522000224B186070BD542201001E4800F0D0F8D7
:105230001F4B1A881F4B9A421CD1A7239B011A8827
:105240001D4B9A4216D11D4B1A881D4B9A4211D103
:105250001C4B1A8894239B019A420BD11A4B1A8833
:105260001A4B9A4206D11A4B1A681A4B9A4201D12C
:10527000152307E01848FDF7A9FC99001748094ACB
:10528000885001331F2BF8D9144A064B1A62DA6191
:10529000B7E7134B134A42211348FDF7FDFBC04605
:1052A00053460000681B00204C330000641B0020A4
:1052B000EE290000C40F0000C20D0000962B000074
:1052C000C0B50000182B0000CC2A000010B500006B
:1052D000FC2C000051ED876438E50010ED52001001
:1052E00064FA0010D4FA001098FA001007B560466E
:1052F000002800D100BE01880A0A0230DF2AFAD154
:10530000C9B2820804D3028840880004104300E038
:105310000068024A5050039007BD0000681B00203F
:10532000002230B5002906D5CD0705434808013ACB
:1053300010E0002230B505000D430FD0CD170C163C
:10534000AC4205D1C901440E2143C0010732F6E742
:105350000500080052423D320149884730BD000037
:10536000EF29000010B5040003F0FAF9002804D07A
:105370000419034B9C4200D810BD0248FDF726FCDF
:1053800000000420E8FA001010B50C0003F0CEFC79
:10539000002804D00419034B9C4200D810BD0248D9
:1053A000FDF714FC00000420E8FA001010B503F02B
:1053B000E1F910BD01480421014B1847B004002059
:1053C00039420010014B1B6818470000B004002050
:1053D000014B5B6818470000B004002010B50300C3
:1053E000080011001B68984710BD0000F8B50700C1
:1053F0000D001600437C002B02D0002400200CE09E
:1054000003681100280098472DE03B7C10E0022142
:1054100015483B689847601C0134B44214DA002CEC
:10542000F3DD2B19013B1B780D3B5A425341DBB294
:105430002A5D0A2AF0D1002BEED1A042E7DA211A28
:1054400028183B689847E2E7B04203DA311A281877
:105450003B689847002E06DDAD19013D2B780D3BCA
:105460005A4253413B74F8BD58FB001070B505001B
:105470000368002B16D00C4B1C6805E0290004C9FA
:105480002000FFF7B3FFE468002C09D02368002B4D
:10549000F9D0064B1B68002BF0D0A342F3D1EDE707
:1054A00000232B6070BDC046341600203C1600203F
:1054B00070B505000C000B68802B05D021684B1CD3
:1054C00023606418257170BD0800FFF7CFFFF5E772
:1054D000F0B583B007000E000092019328E0A368A6
:1054E000002B04D0310038009847002827DCE468FE
:1054F000002C06D0134B1D68002DF0D0A542F6D12C
:10550000EDE70099019A104B5B6A9A4209D80E4860
:10551000806A88420FD29A4201D0012302E0002320
:1055200000E00023002B08D101200021FCF752FFEE
:10553000064B1C68DCE70123F4E70120404203B07E
:10554000F0BDC0463C160020004005403416002047
:1055500010B582B0D0231B0600241C5701A90748B0
:1055600008F0A6FF002806D1019B9C4203D0034807
:1055700008F0AEFF012002B010BDC046B00E002002
:1055800010B5024808F07CFF10BDC046B00E0020E8
:10559000F0B5CE46474680B583B006000D00904674
:1055A0001C00FFF7D5FF81466B1C05D0002C08D0EE
:1055B000194F1A4B1C6807E0300003F0D5FD0500B9
:1055C000F4E7174FF5E7E468002C17D02368002BA9
:1055D000F9D0144B1B68002B01D0A342F3D12A0051
:1055E00031002000B8474346002BECD06B46D91D54
:1055F0000A230B7001222000B847E4E74B46002B3A
:1056000007D16B1E9D41E8B203B0C0BCB946B0469D
:10561000F0BDFFF7B5FFF4E7DD53001034160020AE
:10562000ED5300103C16002010B582B004006B460C
:10563000D81D0470002300220121FFF7A9FF2000DC
:1056400002B010BD10B5030008001100002B05D1F9
:10565000044B1A685B68FFF73BFF10BD0120404216
:10566000FBE7C046A8F2001010B5030008001400C4
:10567000013B012B06D8002300222100FFF788FF01
:10568000200010BD01204042FBE70000094A01E074
:105690000C331A001368002B08D08342F8D100297C
:1056A00007D1C36813600023C36002E0002900D063
:1056B000106070473416002010B5064B1C6801E0DE
:1056C0009847E468002C03D06368002BF8D1F8E712
:1056D00010BDC0463416002070B5050003F044FD2F
:1056E00004000023012201002800FFF751FFFFF70B
:1056F000E3FF200070BD000070B5A2B004000E00F2
:10570000FFF726FF05008422002101A8FFF75AFEBB
:105710003300220001A90848FEF766FD040001A835
:10572000FFF7A4FEFFF7C8FF002D02D1200022B032
:1057300070BDFFF725FFF9E7B15400100FB400B5B5
:1057400083B004A901C90191FFF7D6FF03B008BCDB
:1057500004B0184710B500F053F910BD70470000B1
:10576000014B00221A707047A01C00204B79FF2BC0
:105770000CD18B79002B0BD1CB79012B0AD1082AC4
:105780000AD98A78054B1A70092000E0002070477A
:105790000020FCE70020FAE70020F8E7A01C00202A
:1057A0000120704770B504000D000348FEF734FD7A
:1057B00003002900200098475542000010B5002939
:1057C00026D1117953791B020B43124909788B4278
:1057D00001D0002010BD5378012B03D0022B10D034
:1057E0000020F7E79178D3781B021943DB0503D536
:1057F0004B0A0120984000E000207F231940FFF76A
:10580000D1FF642200210020FDF70EFC0120E1E71A
:105810000120DFE7A01C002001230370004870472F
:105820005CFB001010B50B784878000218438A78AA
:1058300012041043CB781B0603439622D2009342F6
:1058400000D010BD00210800FFF7ACFF30B583B0D9
:1058500005000C0001A9184808F02AFE002808D10C
:10586000D0231B061B68019A9A4221D0124808F0E7
:105870002FFE002001F054FE002807D103246442CB
:105880000D4808F0FDFD200003B030BD002001F000
:1058900069FE002802D103246442F1E722002900B6
:1058A000002001F06BFE041EEAD103246442E7E706
:1058B00003246442E7E7C0466C1C002010B50021B9
:1058C000054808F0F5FD002800D110BD01F0C0FB2F
:1058D000014808F0D5FDF8E76C1C0020F0B5C6467D
:1058E00000B582B080460D0001A92E4808F0E0FD09
:1058F000002808D1D0231B061B68019A9A420FD0BA
:10590000284808F0E5FD002001F00AFE002847D1F4
:10591000254B0020002118605960224808F0B0FD96
:1059200002B080BCB846F0BD01F092FB002001F04F
:1059300039FE002001F0F4FD0028EED0002001F037
:10594000B3FE00281DD0AC42E7DA2E1B002001F088
:10595000ABFE0200864200DC3200002AE4D043465F
:105960001919002001F084FE060001F071FB0020EF
:1059700001F018FEA419FCF70DFD0B4B18605960DF
:10598000E1E7FCF707FD084B1E685F68074A002344
:1059900092197B419942C0D8D5D19042D3D9BCE766
:1059A0000024D0E76C1C0020D00F002020A10700AD
:1059B00010B50A4B1A78D0231B061B689A4207D1F0
:1059C000074B1878FBF72AFCFA208000002110BD55
:1059D000044B054A32210548FDF75EF8A21C002061
:1059E000A11C002074FB001010FC00109CFB001098
:1059F00010B5024B1878FBF711FC10BDA11C00205C
:105A000070B584B0D0231B061A782D4B1A702D4B1D
:105A10001B7802F08FF82C48FCF7ECFF0120FBF715
:105A2000BBFEC0B2294C20702949FBF719FC207835
:105A30000121FBF7EBFB0520FBF700FC041E0BD05C
:105A4000002224490520FBF735FC01212248FFF7FD
:105A50001DFE200004B070BDFCF710FA0600FCF734
:105A600099FC04000D1E1EDB0100FA2292000023A7
:105A700012196B419D4202D804D1914202D90122F0
:105A80005242D317002B14DB012102910021019116
:105A9000124900913000FCF707FA431E9841C4B246
:105AA0000028D6D0D1E70E4B0E4A3F210E48FCF716
:105AB000F3FF0B4B0B4A3F210B48FCF7EDFFC046B1
:105AC000A21C0020E80C01106C1C0020A11C00206E
:105AD000BD580010F1590010C0040020B159001049
